:100000000C9400030C9447030C9447030C9447038F
:100010000C9447030C9447030C9447030C94470338
:100020000C9447030C9447030C943D290C940F2A1D
:100030000C948C230C9447030C9447030C944703B3
:100040000C9447030C9447030C9447030C94470308
:100050000C9447030C94D9230C9447030C94470346
:100060000C9447030C9447030C9447030C944703E8
:100070000C9447030C9447030C9447030C944703D8
:100080000C94F0080C9447030C9447030C9447031A
:100090000C9447030C9447030C9447030C944703B8
:1000A0000C9447030C9447030C944703ED0E040F84
:1000B0001F0F17102C1163109C10E210B718B718FF
:1000C000E918E91836196A1A6A1A6A1A5419E919E4
:1000D000FA19FA195A1A6A1A6A1A631A061B061BBF
:1000E000181B181B0F1B181B181B181B061B061BA5
:1000F000141B181B181B141B7C2AA32A9B2BA32A36
:100100009B2BEF2A122B9B2B692B782B07634236F4
:10011000B79BD8A71A39685618AEBAAB558C1D3C98
:10012000B7CC5763BD6DEDFD753EF6177231BF005C
:100130000000803F08000000BE922449123EABAA96
:10014000AA2ABECDCCCC4C3E00000080BEABAAAAF1
:10015000AA3E00000000BF000000803F0000000039
:1001600000084178D3BB4387D1133D190E3CC3BD72
:100170004282AD2B3E68EC8276BED98FE1A93E4C1F
:1001800080EFFFBE01C4FF7F3F00000000001400AD
:100190001A00080015001700000000001C001800DD
:1001A0000C001200130004001600070009000A00EA
:1001B000000000000B000D000E000F0033001D6258
:1001C0001B6406611968056700000000116710686C
:1001D00036613764386200000000294302512C4127
:1001E0000000000028412A614C6800000000A900BE
:1001F00000005200000000000000000000000000AD
:10020000000000000000A800500051004F00000056
:10021000000000005000510052004F000000AA00F2
:10022000AC00AE00AB0000000000000000000000C9
:1002300000000000000000000000000000000000BE
:10024000000000002C08000000000000000000007A
:100250000000260227021301000000002E001E00ED
:100260001F0020003100000000002F0230022B0090
:10027000000000002D0021002200230034000000B7
:1002800000002F00300011010000000035002400A4
:1002900025002600270000000000000000002C00C0
:1002A0000000000028002A003600000000000000C6
:1002B0000000000000000000000000002E021E02EE
:1002C0001F022002310200000000000000000000B8
:1002D000000000002D02210222022302340200004D
:1002E00000000000000000000000000035022402B1
:1002F0002502260227020000000000000000000086
:100300000000000028002A00000000000000460055
:100310003A003B003C0043000000000000000000E9
:1003200000000000000047003D003E003F00440088
:100330000000000000000000000000000000480075
:1003400040004100420045000000000000000000A5
:10035000000000000000000000003900490000001B
:10036000000000000000005C0000000000004445A8
:100370004255473A2064697361626C65642E0A00D5
:1003800044454255473A20656E61626C65642E0AA9
:10039000000A002530313662003A200025303258FC
:1003A000000A722F63203031323334353637383912
:1003B0004142434445460A00617564696F20706C90
:1003C0006179206E6F746520667265713D256420C9
:1003D000766F6C3D256400617564696F2073746F7E
:1003E00070206E6F746520667265713D25640061D2
:1003F0007564696F2073746F7020616C6C206E6F10
:10040000746573000A002530325820006B657962EC
:100410006F6172645F7265706F72743A20000A00D7
:1004200025303258006B6579626F6172645F736565
:10043000745F6C65643A200064656C5F6B65795F1E
:100440006269743A2063616E27742064656C3A2097
:10045000253032580A006164645F6B65795F6269B8
:10046000743A2063616E2774206164643A202530F9
:1004700032580A005B735D004B6579626F6172648C
:100480002073746172742E0A005B575D005B535DCC
:10049000005B525D005B445D005B435D0004033024
:1004A0000000000E0350006C0061006E0063006BE2
:1004B0000000000A034F004C004B00420000000403
:1004C00003090409025B00030100A0FA090400000B
:1004D000010301010009211101000122400007056B
:1004E000810308000A09040100010300000009213A
:1004F00011010001226D000705820320000A090492
:100500000200020300000009211101000122220063
:1005100007058303200001070503032000011201E2
:10052000100100000008EDFE6060050001020301FB
:100530000631FF0974A1010975150026FF009520F9
:10054000750881020976150026FF0095207508912F
:1005500002C005010980A101850319012AB7001510
:100560000126B700950175108100C0050C0901A195
:1005700001850419012AA002150126A00295017522
:10058000108100C005010906A1018505050719E0D4
:1005900029E7150025019508750181020507190055
:1005A00029EF1500250195F0750181020508190153
:1005B0002905950575019102950175039101C00505
:1005C000010906A101050719E029E7150025019594
:1005D0000875018102950175088101050719002937
:1005E000FF150026FF009506750881000508190112
:1005F0002905950575019102950175039101C000CA
:1006000011241FBECFEFDAE0DEBFCDBF04B603FE7C
:1006100027C08091E2059091E305A091E405B09197
:10062000E5058730904BA740B04BD1F41092E2051E
:100630001092E3051092E4051092E50514BE84B70C
:10064000877F84BF0FB6F894A89580916000886179
:1006500080936000109260000FBEE0E0F8E309951F
:1006600014E0A0E0B1E0E4E4F2E602C005900D92EF
:10067000A238B107D9F725E0A2E8B4E001C01D9285
:10068000A23EB207E1F70E9472260C9420310C942E
:100690000000FF93EF93E0918204F0918304309780
:1006A00009F00995EF91FF910895FC018591803043
:1006B00011F0EFDFFBCF0895FF27E0E230E247FFC4
:1006C0000CC0419597FF09C0EDE26095709580954B
:1006D0009095611D711D811D911D27FF02C02195FF
:1006E00030E350E2AA27660F771F881F991FAA1FC1
:1006F000A41710F0A41B63955A95A9F7AA3008F027
:10070000A95FA05DAF93F395611571058105910512
:1007100041F7ED3211F4EF93F395F21718F43F938C
:10072000F395FBCF8F91B5DFFA95E1F70895E99145
:10073000F9918591803021F0853219F0AADFF9CF47
:10074000089520E0E89455915532C1F3503311F4E7
:10075000689455915A3348F4505390F3220F022E67
:10076000220F220F200D250FF4CF0EF42195899131
:100770009991533619F3533729F1533559F1BC0187
:1007800088279927E8945C3621F489919991689497
:100790005591543639F446EF7EF077FF0DC08FEF58
:1007A0009FEF0AC055374AE039F0583540E121F053
:1007B000523642E009F00895FF93EF937DDFEF9109
:1007C000FF91B7CFFF93EF93FC0181918030B9F394
:1007D00060DFFBCFFF93EF9368DFF1CFDF93CF9321
:1007E000CDB7DEB72596A3DFCF91DF9108956E9A3E
:1007F000769A0C94580781E0089581E008950C944E
:10080000FD0308950C9401041F93CF93DF9300D050
:1008100000D01F92CDB7DEB749835A836B833091E6
:100820000C0589819A81311114C0662359F0222365
:1008300049F00E944220182F682F89819A810E94D6
:10084000EB1F03C00E941620182F69817A81812F27
:1008500004C00E94422069817A810F900F900F900E
:100860000F900F90DF91CF911F910C94FB04FC012E
:10087000262F408151816281738184810C9404040C
:10088000CF93DF93EC0160E00E943704BE01DF915B
:10089000CF910C9402040E9425240E94A42181116E
:1008A00002C00E944D220E94BF0C0C94F7030E94CC
:1008B00074110C9456070895CF93DF930E94F41A95
:1008C0000E9439110E94BE23EC0140E063E070E019
:1008D00084E091E00E94410C0E945B04CE010E94E2
:1008E000CA238A3F910538F48FE99FE00197F1F719
:1008F00000C00000F3CF0E94020DDF91CF910C9455
:10090000FF230F931F93CF93DF93EC0161E00E94CD
:1009100037048C01BE010E94FF03882309F450C0F4
:10092000BE01C8010E94A508882309F449C0BE0180
:10093000C8010E94D811882309F442C0BE01C80131
:100940000E94C6138823E1F1BE01C8010E94181459
:100950008823B1F1BE01C8010E947015882381F17E
:100960008A81882331F101308CE5180751F00E3D62
:100970008CE51807D9F001151C45D9F40E945C04D8
:100980001FC080919005C82FC095C170C0FB80F931
:1009900080939005CC2329F080E893E00E945503D2
:1009A0000FC08EE693E00E9455030BC00E944D22BB
:1009B00007C0CE01DF91CF911F910F910C94FB03E3
:1009C000C0E08C2FDF91CF911F910F910895089572
:1009D0000C94E70481E008950C94EA04CF93C82FA7
:1009E0000E94E8048C2F0E94EC04CF91089580E0CF
:1009F00090E00895089520E3829FC0011124FC0136
:100A00002CE0729FE00DF11D1124E60FF11DEE0F99
:100A1000FF1FE257FE4F859194910895880F991F0B
:100A2000FC01EF56FC4F859194910895CF93DF938D
:100A30000E94FB040E942806EC018115904508F0F5
:100A400043C0C11580E4D80708F0CBC0C03ED10533
:100A500028F5C03CD10508F0B3C0C83AD10578F4F8
:100A6000C53AD10508F0A4C0C130D10509F4ECC0E5
:100A700008F4E8C0C430D10508F0E6C0E3C0CF3BBD
:100A8000D10508F0DFC0C85AD0E0CC0FDD1FC0553B
:100A9000DC4F0990D881C02DD464D6C0C11590E236
:100AA000D90750F4C11521E0D20708F0CDC0C83EE7
:100AB000D10508F4C9C0C6C0C11580E3D80708F045
:100AC00086C0CE019F707FC0C11595E5D90708F09B
:100AD00043C0C11524E5D20708F09AC0C11582E5CC
:100AE000D80708F5C11591E5D90708F07DC0CE01FA
:100AF00074E0969587957A95E1F783709C2F9370B3
:100B000021E030E002C0220F331F9A95E2F73C68E3
:100B1000382BCF70C695C69580E2C89FE00111249E
:100B2000C22BD32B91C09E01237033278C2F869527
:100B30008695C115D34508F05CC0C1E0D0E002C085
:100B4000CC0FDD1F2A95E2F720E2829FC00111241D
:100B5000C82BD92BDC6878C0C11529E5D207A0F4D1
:100B6000C11588E5D80708F058C0C11596E5D90722
:100B700008F068C08C2F0E94BC068F71C82FD0E08F
:100B8000DC2FCC27D06260C0C1152AE5D20708F45B
:100B900049C0CE0190568115904208F053C08D2F68
:100BA0008F710E94BC06DD27D0628F71D82B4CC09C
:100BB000C55AD0E0C252DC4FC881D0E0D06444C0F6
:100BC000CE01805C91090E940E05EC013DC0CE0172
:100BD0009927D3FF03C0EC01D86C36C0EC01D06C70
:100BE00033C0DF70D06A30C0DC2FCC27C16FD06A31
:100BF0002BC0C1E0D0E002C0CC0FDD1F2A95E2F788
:100C000020E2829FC0011124C82BD92BDA681CC0B6
:100C1000DC2FCC27C46FD06A17C0DC2FCC27C06F65
:100C2000D06A12C08C2F8F700E94BC0694E0D695BB
:100C3000C7959A95E1F7CF70D0E0DC2FCC27D0692B
:100C4000C82B02C0C0E0D0E0CE01DF91CF91089563
:100C50008238910569F1B0F48133910509F46DC0D2
:100C600048F48932910509F463C08A32910509F488
:100C700069C008958533910509F455C089339105FC
:100C8000B9F00895833E910569F138F4803E9105ED
:100C9000B1F0823E910509F10895863E9105A9F1D2
:100CA000873E9105B9F1843E910509F064C023C0E7
:100CB0002091D30520FD4FC021FD4DC008958091A6
:100CC000D30580FD44C08091D40580FF44C080914D
:100CD000D30584FD42C083EE4DC08091D30582FFD1
:100CE00038C0F5CF8091D30582FD33C08091D40503
:100CF00080FD31C0ECCF8091D40581FF32C080915E
:100D0000D30584FD2AC087EE35C08091D30583FFCB
:100D100026C0F5CF8091D30583FD21C08091D405F5
:100D200081FD1FC0ECCF8091D30585FD1CC01DC087
:100D30008091D30585FD19C016C08091D30586FD2D
:100D400016C017C08091D30586FD13C010C089E37B
:100D500011C082EE0FC080EE0DC080E00BC086EEA9
:100D600009C084EE07C089E205C085E303C08AE2BA
:100D700001C081E390E008959091D30592FF0DC0EA
:100D8000282F2871283019F4877F846006C0282F07
:100D90002471243011F48B7F886093FF0DC0282FBD
:100DA0002871283119F4877E846106C0282F2471A8
:100DB000243111F48B7E88612091D40520FF0DC071
:100DC000382F3871383019F4877F816006C0382F8A
:100DD0003171313011F48E7F886021FF0DC0282FD2
:100DE0002871283119F4877E816106C0282F21716E
:100DF000213111F48E7E886194FD877E0895E82F5D
:100E0000F0E0EE0FFF1FE154FA4F808191810895C9
:100E1000CF92DF92EF92FF920F931F93CF93DF93C6
:100E200081EA93E00E9455038FEBE82E85E0F82ECF
:100E3000C0E0D0E09CE9C92E93E0D92E03E913E08D
:100E4000DF93CF93DF92CF920E94EE0389E993E084
:100E50000E945503F701819191917F010E948B219E
:100E60009F938F931F930F930E94EE0381E993E06A
:100E70000E94550321968DB79EB708960FB6F89439
:100E80009EBF0FBE8DBFC430D105D1F6DF91CF918B
:100E90001F910F91FF90EF90DF90CF90089580EA1F
:100EA0008A95F1F7089508950C9453070C9454070C
:100EB0000C945307CF93DF93ADEEB3E041EF53E0D3
:100EC00061E070E08D91E82FE295EF70F0E021A1F4
:100ED0008F70EB0102C0CC0FDD1F8A95E2F7CE01C7
:100EE0009C2F9095922391A392A1892B82A34A17BC
:100EF0005B0741F7A1EEB3E041E050E08D91E82FB0
:100F0000E295EF70F0E021A18F70BA0102C0660F88
:100F1000771F8A95E2F7CB01962F9095922391A3A4
:100F200092A1892B82A373E0AD3EB70739F71092E7
:100F3000B8051092B7051092C0051092BF05109227
:100F4000BA051092B9051092C2051092C10510920F
:100F5000BC051092BB051092C4051092C3051092F7
:100F6000BE051092BD051092C6051092C50584E01D
:100F70000E944B08DF91CF910C944B046F927F92AB
:100F80008F929F92AF92BF92CF92DF92EF92FF9299
:100F90000F931F93CF93DF938DEEC82E83E0D82E4F
:100FA00007EB15E09FEBA92E95E0B92E712C882454
:100FB0008394912CF60181916F01C82FC295CF7057
:100FC000D0E099A18F70740101C0EE0C8A95EAF708
:100FD000892F8E2989A38AA16E2C609486218AA3E9
:100FE0000E944F07E1EEF3E040E050E020E030E007
:100FF0006191A62FA295AF70B0E090968C9190E091
:101000006F7002C0959587956A95E2F780FD08C0DC
:10101000C401042E02C0880F991F0A94E2F702C08F
:1010200080E090E0282B392B4F5F5F4F4C3051050B
:10103000F9F689A1682269A28AA1E82AEAA2F80140
:10104000808191812817390721F03183208381E045
:1010500001C080E0782A0E5F1F4FA016B10609F08C
:10106000A9CF272D44E06FEB75E087EB95E00E9458
:101070004C080E945704872DDF91CF911F910F914B
:10108000FF90EF90DF90CF90BF90AF909F908F90A8
:101090007F906F9008950895FF920F931F93CF93C1
:1010A000DF93F82E092F162FD72FC42F222349F0B4
:1010B00081E0809386040E94BE23909385048093F0
:1010C0008404809186048823D9F0809184049091CF
:1010D00085040E94CA23069798F0EF2DF02FA12FC8
:1010E000BD2F80E090E04C2F50E08417950734F43A
:1010F000219131912D933D930196F7CF1092860463
:10110000DF91CF911F910F91FF900895682F70E0AC
:1011100065547109072E000C880B990B0E94EA2C6C
:1011200020E030E040E451E40E94402C9B01AC01FF
:1011300060E070E080E090E40E946E2E20E030E0FD
:101140004CED53E40E94012E0895FB018D312CE5F6
:10115000920731F482818823A1F10E947C0E2FC076
:101160008E312CE5920731F48281882351F10E945F
:101170008C0E25C08F312CE5920741F482818823A3
:1011800001F10E94780E8111F2CFE7CF8A322CE56F
:10119000920731F482818823A1F00E94A50E08C035
:1011A0008B329C4571F48281882359F00E94AE0EE7
:1011B00040E064E070E08CE191E00E94410C80E04E
:1011C000089581E008950E9486084FE050E00C9455
:1011D000FF0D0E9486080C94490D0C94020D089591
:1011E0001F920F920FB60F9211244F925F926F923F
:1011F0007F928F929F92AF92BF92CF92DF92EF92A7
:10120000FF922F933F934F935F936F937F938F93AF
:101210009F93AF93BF93CF93DF93EF93FF9380910F
:101220009B04882309F4ABC1C091DD04D091DE0496
:101230001C161D060CF0A3C140908A0450908B042C
:1012400060908C0470908D0420E030E0A901C3010F
:10125000B2010E94FC2D18160CF065C0C130D105FA
:1012600009F452C08091DB049091DC04BE010E941D
:1012700005307C019093DC048093DB0480909D0416
:1012800090909E04A0909F04B090A00420E030E0D5
:1012900040E85FE3C501B4010E94CF2B60939D0439
:1012A00070939E0480939F049093A004F701EE0F27
:1012B000FF1FEE0FFF1FEF54FB4FA3019201608150
:1012C0007181828193810E94402C20E030E040E0D7
:1012D0005EE30E94012E9B01AC01C501B4010E9496
:1012E000FC2D18168CF4C7010196BE010E94053032
:1012F0009093DC048093DB0410929D0410929E0472
:1013000010929F041092A004E091DB04F091DC04A1
:10131000EE0FFF1FEE0FFF1FEF54FB4F6081718137
:1013200082819381E0C0809174012197882309F420
:10133000BFC0C090D704D090D804E090D904F090FA
:10134000DA0420E030E0A901C701B6010E943B2C7D
:10135000882309F4A2C0FE01EE0FFF1FEE0FFF1F4E
:10136000EF54FB4F80809180A280B380A50194014F
:10137000C701B6010E943B2C87FF31C0A501940133
:1013800060E070E08CED93EC0E94402C20E030E0B7
:1013900040E451E40E94402C20E030E040E05FE374
:1013A0000E94012E9B01AC0160E070E080E090E4BF
:1013B0000E946E2E9B01AC01C501B4010E94012E5A
:1013C0009B01AC01C701B6010E943B2C87FF07C0FF
:1013D000A701960160E070E08CED93E439C0A501AF
:1013E0009401C701B6010E94FC2D18160CF055C0DF
:1013F000A501940160E070E08CED93E40E94402C24
:1014000020E030E040E451E40E94402C20E030E055
:1014100040E05FE30E94012E9B01AC0160E070E0C0
:1014200080E090E40E946E2E9B01AC01C501B401E6
:101430000E94012E9B01AC01C701B6010E94FC2D48
:1014400018165CF5A701960160E070E08CED93EC56
:101450000E94402C20E030E040E451E40E94402C07
:1014600020E030E040E05FE30E94012E9B01AC01F0
:1014700060E070E080E090E40E946E2E9B01AC0181
:10148000C701B6010E94012E6093D7047093D8045F
:101490008093D9049093DA041EC0CC0FDD1FCC0FCB
:1014A000DD1FCF54DB4F88819981AA81BB810BC09E
:1014B000FE01EE0FFF1FEE0FFF1FEF54FB4F808169
:1014C0009181A281B3818093D7049093D804A09393
:1014D000D904B093DA046091D7047091D804809154
:1014E000D9049091DA0420918704309188042F3F29
:1014F0004FEF340731F02F5F3F4F30938804209334
:1015000087040E94B70E6B017C0120E034E244EFB7
:1015100051E40E943B2C87FF08C046EFC42E48E2EE
:10152000D42E44EFE42E41E4F42E20E030E040E0FD
:1015300051E4C701B6010E94012E9B01AC0160E09D
:1015400074E284E79BE40E94402C6B017C010E94C2
:10155000B92C70939700609396002091750130919B
:1015600076014091770150917801C701B6010E9440
:10157000012E0E94B92C709399006093980080917D
:101580009C04882309F456C1C0909704D090980415
:10159000E0909904F0909A0420E030E0A901C7019E
:1015A000B6010E94FC2D1816D4F580918704909105
:1015B00088048F3F2FEF920729F0019690938804BB
:1015C00080938704C701B6010E94B70E20E030E087
:1015D00040E051E40E94012E9B01AC0160E074E206
:1015E00084E79BE40E94402C6B017C010E94B92C93
:1015F0007093970060939600209175013091760169
:101600004091770150917801C701B6010E94012EE7
:101610000E94B92C709399006093980008C01092B2
:101620009700109296001092990010929800609185
:101630009104709192046F5F7F4F70939204609356
:101640009104209196003091970080E090E0232B48
:1016500071F12091900421112AC0C0919600D0917F
:1016600097000E94E82C6B017C01BE0180E090E0B5
:101670000E94E82C9B01AC0160919304709194044A
:1016800080919504909196040E94402C20E03FEFB9
:101690004FE757E40E94012E20E030E040E85FE38E
:1016A0000E94CE2B9B01AC01C701B6010AC00E946B
:1016B000E82C20919304309194044091950450912A
:1016C00096040E94FC2D87FDB5C080918E049091F8
:1016D0008F04019690938F0480938E042091C70508
:1016E0003091C80582179307B0F08091CE0588230A
:1016F00029F010928F0410928E040DC08091710019
:101700008D7F80937100809190008F738093900003
:1017100010929C0497C02091900480918E04909127
:101720008F04E091C905F091CA0521113FC021E065
:10173000209390049C012150310930938F04209311
:101740008E0433E0880F991F3A95E1F7E80FF91FEF
:10175000DF011897CD90DD90ED90FC9020813181D4
:1017600042815381C701B6010E943B2C811109C0FF
:1017700010929704109298041092990410929A046F
:1017800008C0C0929704D0929804E0929904F09215
:101790009A0480E090E0A0E8BFE3809393049093E4
:1017A0009404A0939504B093960440C010929004C2
:1017B000109288041092870423E0880F991F2A95BD
:1017C000E1F7E80FF91F80819181A281B3818093B5
:1017D000970490939804A0939904B0939A0420E0FE
:1017E00030E040E85EE364817581868197810E94E4
:1017F000012E6B017C016091790170E080E090E046
:101800000E94E82C20E030E048EC52E40E94402C9A
:101810009B01AC01C701B6010E94012E60939304A5
:10182000709394048093950490939604109292047C
:10183000109291048091CB0580FD04C010929C040D
:1018400010929B04FF91EF91DF91CF91BF91AF91E7
:101850009F918F917F916F915F914F913F912F91C8
:10186000FF90EF90DF90CF90BF90AF909F908F90C0
:101870007F906F905F904F900F900FBE0F901F90D2
:101880001895CF92DF92EF92FF92CF93DF93EC0106
:101890006B01F42E80918904811102C00E94BF0C5B
:1018A0008091CB0580FF64C0809171008D7F809313
:1018B000710080919B0481110E94020D81E0809350
:1018C0009C04D093CA05C093C905D092C805C092A4
:1018D000C705F092CE0510929D0410929E041092BE
:1018E0009F041092A00410928F0410928E0488819D
:1018F0009981AA81BB818093970490939804A093C7
:101900009904B0939A0420E030E040E85EE36C81F3
:101910007D818E819F810E94012E6B017C016091EF
:10192000790170E080E090E00E94E82C20E030E057
:1019300048EC52E40E94402C9B01AC01C701B60167
:101940000E94012E609393047093940480939504F5
:1019500090939604109292041092910480917100D9
:1019600082608093710080919000806880939000E5
:10197000DF91CF91FF90EF90DF90CF9008950E947C
:10198000A421811102C00E944D220E94D521809382
:10199000CB0580918904811129C03E9A8091710004
:1019A0008D7F8093710082E0809390008AE1809324
:1019B000910081EC91E1909397008093960023EA47
:1019C0003BE04EE855E4609175017091760180919D
:1019D0007701909178010E94012E0E94B92C70939A
:1019E00099006093980081E0809389048091CB05F1
:1019F00080FF07C040E063E070E08CE591E00C946C
:101A0000410C08958091900580FF08C08FEE93E00F
:101A10009F938F930E94EE030F900F908091890403
:101A2000811102C00E94BF0C1092DE041092DD04EE
:101A3000809171008D7F80937100809190008F73F1
:101A40008093900010929C0410929B041092D704F3
:101A50001092D8041092D9041092DA041092D30490
:101A60001092D4041092D5041092D6041092D2048D
:101A70001092D104E1EBF4E0A1EAB4E011921192EA
:101A8000119211921D921D9284E0E13DF807B1F789
:101A90000895CF92DF92EF92FF920F931F93CF930F
:101AA000DF936B017C018091900580FF10C0C7011E
:101AB000B6010E94B22C7F936F9387ED93E09F93C2
:101AC0008F930E94EE030F900F900F900F908091D4
:101AD0009B04882309F48AC080918904811102C083
:101AE0000E94BF0C01ED14E0C7E0D0E0F801529174
:101AF0004291329122918F01C701B6010E943B2C85
:101B0000811131C0FE01EE0FFF1FEE0FFF1FEF54DA
:101B1000FB4F1082118212821382DE01AA0FBB1FBB
:101B2000AF55BB4F11961C921E92C730D105E9F0FC
:101B300021964481558166817781408351836283F8
:101B40007383148215821682178212968D919C914E
:101B5000139711969C938E9313961C921E92129734
:101B600034961296E2CF219708F68091DD04909189
:101B7000DE04019797FD05C09093DE048093DD0499
:101B800004C01092DE041092DD048091DD04909177
:101B9000DE042091DB043091DC042817390724F09F
:101BA0001092DC041092DB04892B01F58091710006
:101BB0008D7F80937100809190008F73809390004F
:101BC0001092D7041092D8041092D9041092DA041B
:101BD0001092D3041092D4041092D5041092D6041B
:101BE0001092D2041092D10410929B04DF91CF91F5
:101BF0001F910F91FF90EF90DF90CF900895CF92BB
:101C0000DF92EF92FF92CF93DF936B017C01D42F91
:101C1000C52F8091900580FF14C05F934F93C7013B
:101C2000B6010E94B22C7F936F9388EB93E09F9351
:101C30008F930E94EE030F900F900F900F900F90D4
:101C40000F9080918904811102C00E94BF0C809185
:101C5000CB0580FF46C08091DD049091DE0408979B
:101C60000CF03FC0809171008D7F80937100809156
:101C70009C0481110E94020D81E080939B041092CC
:101C800088041092870420E030E0A901C701B60162
:101C90000E94FC2D1816DCF48091DD049091DE0486
:101CA000FC01EE0FFF1FEE0FFF1FEF54FB4FC08232
:101CB000D182E282F382FC01EE0FFF1FEF55FB4F52
:101CC000D083C18301969093DE048093DD048091DC
:101CD0007100826080937100809190008068809391
:101CE0009000DF91CF91FF90EF90DF90CF9008951B
:101CF0008091CB05817008958091CB0581608093A0
:101D0000CB050E94D9210E94EF0840E062E070E01C
:101D10008CE491E00C94410C40E062E070E08CE3D4
:101D200091E00E94410C2FEF81EE94E02150804021
:101D30009040E1F700C000000E94020D8091CB05A9
:101D40008E7F8093CB050C94D9218091DF0490E0A5
:101D50000196877099278093DF0408958091DF04AE
:101D600090E00796877099278093DF0408958F92FB
:101D70009F92AF92BF92CF92DF92EF92FF92CF935A
:101D8000DF936B017C01C0918704D0918804BE0170
:101D900080E090E00E94E82C4B015C01A7019601D5
:101DA00060E070E08CE594E40E94402C9B01AC0163
:101DB000C501B4010E94012E0E94B92C9B01E09143
:101DC000DF048E2E912C48E08416910408F044C262
:101DD000F401EA5AFF4F0C9419301092740180E01C
:101DE00090E0A0E0BFE38093750190937601A0930B
:101DF0007701B093780110928A0410928B041092AC
:101E00008C0410928D0428C21092740110928A04DE
:101E100010928B0410928C0410928D046431710521
:101E200028F46A30710508F449C104C0693C7105A1
:101E300008F044C180E090E0A0E8BEE373C01092D7
:101E4000740110928A0410928B0410928C041092E8
:101E50008D0420E030E040EA52E4C701B6010E9460
:101E60003B2C87FDF9C120E030E040E253E4C7019C
:101E7000B6010E943B2C87FF2FC00E946B3068E2A6
:101E800070E00E940530BC01645C7F4F072E000C9F
:101E9000880B990B0E94EA2C6B017C0180918704CE
:101EA000909188048B309105C8F18531910508F037
:101EB00080C165E170E0681B790B80E090E00E94D2
:101EC000E82C20E030E040E05FE30E94012E20E0BB
:101ED00030E040E251E4A8C020E030E040EA53E4C2
:101EE000C701B6010E943B2C87FF2CC00E946B30BB
:101EF00068EE73E00E940530BC0168517C4F072EEC
:101F0000000C880B990B0E94EA2C6B017C018091DC
:101F10008704909188048630910568F480E090E011
:101F2000A0E0BFE38093750190937601A0937701C1
:101F3000B093780191C18531910508F03AC165E10E
:101F400070E062C020E030E040E254E4C701B60136
:101F50000E943B2C87FF2FC00E946B3060ED77E022
:101F60000E940530BC016854744F072E000C880B8A
:101F7000990B0E94EA2C6B017C018091870490915F
:101F800088048031910550F28531910508F011C126
:101F900065E170E0681B790B80E090E00E94E82C1E
:101FA00020E030E040E05FE30E94012E20E030E0DE
:101FB00040EA50E439C020E030E040EA54E4C70190
:101FC000B6010E943B2C87FF47C10E946B3060ED39
:101FD00077E00E940530BC016854744F072E000C56
:101FE000880B990B0E94EA2C6B017C01809187047D
:101FF000909188048432910508F490CF8333910541
:1020000008F0D7C063E370E0681B790B80E090E0D4
:102010000E94E82C20E030E040E05FE30E94012EC7
:1020200020E030E040E751E40E94402C7CC041E0D9
:102030004093740110928A0410928B0410928C04C5
:1020400010928D046431710540F46A30710560F5B9
:1020500020E030E040E85EE32BC0693C710508F009
:10206000A8C080E090E00E94E82C20E030E040EA48
:1020700051E40E94CE2B20E030E044E353E40E9480
:10208000402C9B01AC010E94012E20E030E040E09A
:102090005EE30E94012E9B01AC0160E070E080E0F5
:1020A0009EE30E94CE2B3FC020E030E040E05FE3A3
:1020B000C701B6010E94012E6B017C0180E090E017
:1020C000A0E0BEE32FCF21E02093740110928A0498
:1020D00010928B0410928C0410928D044AE0469F5B
:1020E0009001479F300D1124C90168EB7BE00E94ED
:1020F000F12FBC016C5D754077FF03C07195619550
:102100007109072E000C880B990B0E94EA2C2EE314
:1021100033EC4EE259E30E94012E20E030E040EC27
:102120005EE30E94CF2B60937501709376018093DC
:1021300077019093780190C081E0809374011092B0
:102140008A0410928B0410928C0410928D04CE019C
:1021500083709927892BE1F0BE016170772780E0B9
:1021600090E00E94E82C20E030E040E05EE30E9436
:10217000012E20E030E040E45FE30E94CF2B60932B
:1021800075017093760180937701909378010CC06C
:1021900080E090E0A0E0BFE380937501909376012A
:1021A000A0937701B0937801C770DD27CD2B09F09C
:1021B00053C010927501109276011092770110921F
:1021C00078014AC041E04093740110928A04109251
:1021D0008B0410928C0410928D04812C912CA12CD4
:1021E0009FE3B92E8092750190927601A0927701BB
:1021F000B09278012739310578F180E090E00E94B3
:10220000E82C20E030E047E153E40E94CE2B20E0B0
:1022100030E04AE754E40E94402C20E030E048E4FB
:1022200052E40E94012E20E030E040EA51E40E9496
:10223000302D0E94B22C660F771F660F771FFB01AF
:10224000EF50FC4F2081318142815381C701B6019B
:102250000E94012E6B017C01C701B601DF91CF9175
:10226000FF90EF90DF90CF90BF90AF909F908F90B6
:1022700008958091F80481110C94ED08089521E0EF
:102280008F3F910508F020E0822F08950C943F11B4
:102290000E9439111092F80440E068E070E08AEF83
:1022A00091E00C94410C1092F70440E068E070E07B
:1022B0008AE791E00C94410C0E94391120911C0393
:1022C00030E02F5F3F4F2370332720931C0348E2F9
:1022D000429FC001439F900D112440E065E070E0F3
:1022E00086589D4F0C94410CCF938091F404882321
:1022F00009F442C08091E0049091E104009781F4D8
:102300000E94BE239093E1048093E0042091E204B4
:1023100030E02115310571F48091E30490E00BC0A9
:102320000E94CA2320911A0330911B0328173907F2
:1023300038F322C0C9010197F901EC51FB4FC0816C
:102340002091F804222331F0FC01EC51FB4F8081F5
:102350000E94E9088091F804882319F08C2F0E94CC
:10236000E3088091E20490E001966091E30470E05C
:102370000E9405308093E204CF910895089581E092
:102380008093F80440E068E070E08AE392E00E9405
:10239000410C0C94BE11089581E08093F70440E055
:1023A00068E070E08AEB91E00E94410C0C94CB1144
:1023B000EF92FF921F93CF93DF93CDB7DEB7A39732
:1023C0000FB6F894DEBF0FBECDBF7C0186E2E816E3
:1023D0008CE5F80641F4FB018281882309F450C0A2
:1023E0000E94BF11AAC0F7E2EF16FCE5FF0641F418
:1023F000FB018281882309F443C00E9448119DC0DB
:10240000F8E2EF16FCE5FF0649F4FB018281882320
:10241000B9F18091F8048111F0CFE2CFFCE2EF1620
:10242000FCE5FF0639F4FB018281882349F10E9413
:10243000CC1183C0FDE2EF16FCE5FF0639F4FB0189
:1024400082818823E9F00E94531177C0FEE2EF16E3
:10245000FCE5FF0649F4FB018281882389F0809125
:10246000F7048111F0CFE3CFF9E2EF16FCE5FF06A8
:1024700039F4FB018281882319F00E945C115DC050
:102480009091F804911105C08091F704882309F414
:10249000D8C0FB014281442309F451C0F0EEEF168D
:1024A000F10461F40E94391181E08093F6041092E6
:1024B000F5041092F4041092E3043FC082EEE81693
:1024C000F10471F40E9439118091F604882319F007
:1024D00081E08093F5041092F6041092F4042DC06C
:1024E000E3EEEE16F10491F48091F504882339F1BE
:1024F0000E9439111092F60481E08093F404109246
:10250000E2041092E1041092E00417C0F2E5EF1625
:10251000F10431F480911A0390911B030A9709C0CA
:1025200081E5E816F10459F480911A0390911B0398
:102530000A9690931B0380931A0380E083C08091D6
:102540001C0381110AC0FB01108180911F03180F29
:10255000135080911D03180F4AC08130A1F4FB0174
:10256000108180911F03180F105E20911D03120F20
:10257000818124E030E0281B3109822F880F880FE9
:10258000280F120F3DC0823099F4FB011081809119
:102590001F03180F105E80911D03180F818124E026
:1025A00030E0281B3109F7E02F9F100D112428C0BF
:1025B000833021F583E2EDE8F3E0DE01119601902E
:1025C0000D928A95E1F7FB01808121E030E02C0F2C
:1025D0003D1F280F311DE0911D03F0911E03E20FF6
:1025E000F31F10911F0313508081180FFB0181818D
:1025F00024E030E0281B3109FCE0D6CF10911F0306
:102600004423A1F0992319F0812F0E94E3088091BF
:10261000F604882381F08091E304E82FF0E0EC5188
:10262000FB4F10838F5F8093E30405C0992319F05B
:10263000812F0E94E908C7010E94461191E0892775
:1026400001C081E0A3960FB6F894DEBF0FBECDBFE8
:10265000DF91CF911F91FF90EF900895AF92BF92BD
:10266000CF92DF92EF92FF920F931F93CF93DF935E
:102670007C015B01C42FD22FFC0182818823F9F0F9
:102680004093FB040E94BE239093FA048093F904C4
:1026900080E28C0F883008F06EC0C77081E001C006
:1026A000880FCA95EAF7DF91CF911F910F91FF90A4
:1026B000EF90DF90CF90BF90AF900C947318809103
:1026C000FB04481335C08091F9049091FA040E94EC
:1026D000CA236C01B701C5010E94AD1DC816D906F9
:1026E00038F510E21D0FCD17B9F080E28C0F88305D
:1026F00040F4C77081E001C0880FCA95EAF70E94D4
:102700007A18183058F581E09D2F977001C0880F16
:102710009A95EAF70E947318802F0E94601818306B
:1027200050F5D77081E001C0880FDA95EAF70AC04A
:1027300080E28C0F8830F8F4C77081E001C0880F08
:10274000CA95EAF7DF91CF911F910F91FF90EF901B
:10275000DF90CF90BF90AF900C947A18802FDF91CC
:10276000CF911F910F91FF90EF90DF90CF90BF908E
:10277000AF900C946018DF91CF911F910F91FF9053
:10278000EF90DF90CF90BF90AF9008950F939C0192
:10279000CB01233F4CE5340731F188F4283DFCE5BB
:1027A0003F07D9F0293D4CE5340779F1273D3C45F9
:1027B000A9F506E221EE41EE67ED7CE52BC0253F51
:1027C000FCE53F07E1F0A8F0263F3C4539F507E27C
:1027D00025EE46EE66EF7CE51DC007E225EE45EEF0
:1027E00068ED7CE517C006E221EE40EE63EF7CE584
:1027F00011C007E225EE44EE64EF7CE50BC006E273
:1028000021EE42EE65EF7CE505C008E221E045EEF1
:1028100069ED7CE50E942E1380E008C0FC018281F6
:10282000882319F01092FB0401C081E00F910895F4
:10283000CF93DF93EC01FB018281882309F44CC123
:10284000C230FCE5DF0708F448C1C6319CE5D90772
:1028500038F09E012A5F3C452930310508F03DC122
:102860000E94B7219093D4058093D305C031ECE545
:10287000DE0709F4CCC008F042C0C8308CE5D807A8
:1028800009F4A1C0F0F4C430ECE5DE0709F487C018
:1028900068F4C2308CE5D80709F47DC0C330DC454C
:1028A00009F010C18091D30582607CC0C630ECE590
:1028B000DE0709F480C008F082C08091D3058860EB
:1028C00071C0CC308CE5D80709F48DC068F4CA30EB
:1028D000ECE5DE0709F47BC008F081C00E94F41A21
:1028E0008091D30580685EC0CE308CE5D80709F4AE
:1028F0007EC008F088C08091D3058B7F53C0CB3F4A
:10290000ECE5DE0709F451C020F5C3318CE5D807AA
:1029100009F485C078F4C131ECE5DE0709F47BC029
:10292000C231DC4509F0CEC00E94F41A8091D30573
:102930008F7738C0C5318CE5D80709F480C008F41A
:10294000B2C0CA3FDC4509F0BDC08091D4058160AA
:102950002FC0CF3FFCE5DF0709F469C078F4CD3F15
:102960009CE5D90709F44BC008F445C08091D40513
:10297000826081608093D40540E08BC0C130FDE56A
:10298000DF0709F49CC008F476C0C230DD4509F0C9
:1029900099C080E095C08091D305816003C080918B
:1029A000D30584608093D3058DC08091D405826067
:1029B0008093D40587C08091D3058061F3CF809147
:1029C000D3058062EFCF8091D3058064EBCF8091F7
:1029D000D305886084608093D30540E040C0809137
:1029E000D3058E7FDFCF8091D3058D7FDBCF8091A4
:1029F000D305877FD7CF8091D4058E7FD9CF8091A3
:102A0000D4058D7FD5CF8091D3058F7ECBCF80919C
:102A1000D3058F7DC7CF8091D3058F7BC3CF8091A6
:102A2000D305877F8B7F8093D30540E01FC08091C3
:102A3000D4058D7F8E7F8093D40540E02FC0809198
:102A4000D30582FB222720F991E040E0922790FBFA
:102A500082F990FB83F98093D305992339F064E0E0
:102A600070E080E593E00E94410C2CC062E070E0D1
:102A700080E793E0F8CF8091D405982F90959170DE
:102A80008E7F892B90FB81F98093D40540E09923B8
:102A900029F064E070E080E293E0E5CF62E070E06E
:102AA00080E493E0E0CF0E94F41A8091D30587FB85
:102AB000222720F991E0922790FB87F973CF81E0DC
:102AC0000E944F228091D3059091D4050E94C82185
:102AD0000E94F41A80E001C081E0DF91CF91089557
:102AE000CF93DF9386319C4541F5EB010E94C320D3
:102AF000982F8A812091800330918103882379F077
:102B00009A7A81E009F480E08093FC04911102C07C
:102B100069E201C065E3C9010E940C230AC08091EB
:102B2000FC04811102C069E201C065E3C9010E9491
:102B300017230E94112180E001C081E0DF91CF9135
:102B4000089590930205809301050895E091010591
:102B5000F0910205309721F00190F081E02D099469
:102B600080E00895EF92FF921F93CF93DF93FC01D3
:102B7000A0910105B0910205109709F442C080911F
:102B80008C03882341F08091D30587FF04C08081A6
:102B9000818385E08083EF011296ED91FC9113977C
:102BA000CE0109958091900582FF2BC080FF04C063
:102BB0008CE094E00E94550318E086E0E82E84E063
:102BC000F82E8091900580FF0BC088811F928F9313
:102BD000FF92EF920E94EE030F900F900F900F90D4
:102BE000115021961111EDCF8091900580FF09C001
:102BF00084E094E0DF91CF911F91FF90EF900C94CF
:102C00005503DF91CF911F91FF90EF900895209190
:102C1000FF04309100052817390771F090930005E3
:102C20008093FF04E0910105F0910205309721F0B7
:102C30000680F781E02D099408952091FD043091DC
:102C4000FE042817390771F09093FE048093FD0469
:102C5000E0910105F0910205309721F00084F185A3
:102C6000E02D0994089585B7806885BF85B7806891
:102C700085BF089508950C943A160C943B160C9455
:102C80003A160C943A160E9433160E943F160C9482
:102C90003D1681E008950C9449160E94B5230E94C8
:102CA0005A070E9439240C944116CF93C82F809163
:102CB000900582FF1EC080FF04C085E294E00E9460
:102CC00055038091900580FF0CC01F92CF9380E246
:102CD00094E09F938F930E94EE030F900F900F90BC
:102CE0000F908091900580FF04C08EE194E00E94D7
:102CF00055038C2FCF910C94EE047F928F929F926C
:102D0000AF92BF92CF92DF92EF92FF920F931F93F9
:102D1000CF93DF93CDB7DEB72A970FB6F894DEBF17
:102D20000FBECDBF0E94BE070E944B16811111C07D
:102D30008FEF89838A831B820E94BE238160782F54
:102D40009D838C8349815A816B818D810E942B17D1
:102D50004FC044E0A42E45E0B42E00E010E0702EF9
:102D6000802F0E94FF066C01F501819091905F0118
:102D7000882699268114910431F40F5F1F4F043087
:102D8000110569F7D5CF8091900581FD0E94080754
:102D900080E0EE24E394F12C94012E213F21232B9B
:102DA00009F18E837F82CE20DF2081E0CD2809F4D7
:102DB00080E088870E94BE238160782F9A87898768
:102DC0004E815F8168858A850E942B17000F111F35
:102DD000F801EC5FFA4F80819181E826F926F182B3
:102DE000E08206C08F5FEE0CFF1C8C30A9F6C5CFC9
:102DF0000E94A615909103058917C9F00E94A61597
:102E0000809303052A960FB6F894DEBF0FBECDBFA0
:102E1000DF91CF911F910F91FF90EF90DF90CF90B6
:102E2000BF90AF909F908F907F900C9455162A96EC
:102E30000FB6F894DEBF0FBECDBFDF91CF911F91CB
:102E40000F91FF90EF90DF90CF90BF90AF909F9049
:102E50008F907F900895CF93DF93CDB7DEB72B97F8
:102E60000FB6F894DEBF0FBECDBF4F83588769877A
:102E70007A878B87DE01119686E0FD0111928A9593
:102E8000E9F785E0FE01379601900D928A95E1F70A
:102E900049815A816B817C818D819E810E94B01D08
:102EA0002B960FB6F894DEBF0FBECDBFDF91CF914A
:102EB0000895FC01808191810E9484200895CF9320
:102EC000882309F49CC0C82F8238C1F40E94A6153B
:102ED00081FD95C069E380918003909181030E94F8
:102EE0000C230E9411212FEF81EE94E021508040AD
:102EF0009040E1F700C0000069E319C0833801F594
:102F00000E94A61580FD7BC063E5809180039091AF
:102F100081030E940C230E9411212FEF81EE94E087
:102F2000215080409040E1F700C0000063E58091AF
:102F30008003909181030E941723CF910C9411215B
:102F40008438C1F40E94A61582FD59C067E48091BF
:102F50008003909181030E940C230E9411212FEF86
:102F600081EE94E0215080409040E1F700C00000E5
:102F700067E4DDCF8CEF8C0F813AD0F46C2F809119
:102F80008003909181030E946A22882349F06C2F6C
:102F900080918003909181030E9417230E94112148
:102FA0006C2F80918003909181030E940C23C5CFE8
:102FB00080E28C0F883048F4C77081E001C0880F30
:102FC000CA95EAF70E94C620B8CFEBE5EC0FE330D4
:102FD00040F4F0E0E159FB4F808190E0CF910C94F8
:102FE0000716C85AC73158F4EC2FF0E0EE0FFF1F58
:102FF000EF5BFB4F80819181CF910C941D16CF9197
:103000000895882309F45BC0682F823879F40E9400
:10301000A61581FF54C069E38091800390918103DC
:103020000E940C230E94112169E310C08338B1F47F
:103030000E94A61580FF43C063E5809180039091B4
:1030400081030E940C230E94112163E5809180037B
:10305000909181030E9417230C941121843879F4F4
:103060000E94A61582FF2BC067E480918003909197
:1030700081030E940C230E94112167E4E7CF8CEFAB
:10308000860F813A18F380E2860F883048F4677023
:1030900081E001C0880F6A95EAF70E94CC20DCCF5E
:1030A0008BE5860F833020F480E090E00C940716C7
:1030B000685A673120F480E090E00C941D16089562
:1030C000CF93C82F0E945F17C93349F42FEF87EEC3
:1030D00093E0215080409040E1F700C000008C2F29
:1030E000CF910C940118882321F00E94C6200C94E3
:1030F00011210895882321F00E94CC200C941121E5
:103100000895CF92DF92EF92FF920F931F93CF9388
:10311000DF937C01062FC72FFC01158112951F70CC
:10312000D281D1110E94E3200E94BC20882399F013
:10313000DD2389F08C2F807F803421F080E2800FA6
:10314000883048F082E00E945B210E94BC2091E020
:10315000D82ED92601C0D12CCC2EC2948FE0C82203
:103160008C2D90E0FC01E25AFF4F0C9419308C2F0B
:10317000807FCF70882311F0C295C07FDD2399F046
:10318000CC2309F482C180E2800F883010F0011155
:1031900004C08C2F0E94C62003C08C2F0E94D62012
:1031A0000E94112172C1802F0E940118CC2309F4C2
:1031B00091C180E2800F883010F0011104C08C2F83
:1031C0000E94CC2003C08C2F0E94DC200E94112181
:1031D00081C18C2F807FCF70803211F0C295C07F6B
:1031E000002319F00130C9F022C0DD2371F0112352
:1031F00041F0113031F40E94F6208C2B0E94FE2009
:1032000069C10E94F6208C2B1DC0112319F01130CA
:1032100009F460C10E94072125C0DD2321F016308A
:1032200008F058C10EC0153008F054C11BC0DD2392
:1032300061F0112331F0F701858180FF26C18F7085
:1032400085838C2F0E94731845C1112359F00933CF
:1032500009F02CC1FFEF27EE83E0F15020408040C1
:10326000E1F722C18C2F0E947A1834C18C2F8695E9
:103270008695837019F0813061F02CC1DD2321F037
:10328000802F9C2F937002C080E090E00E94071670
:1032900029C1DD2321F0802F9C2F937002C080E094
:1032A00090E00E941D161EC18C2F837009F045C04E
:1032B000D11114C1402F429546954770440F440FD9
:1032C000602F6F70862F90E0A0E0B0E0042E04C065
:1032D000880F991FAA1FBB1F0A94D2F704FF10C0C2
:1032E0000FE010E020E030E004C0000F111F221FAB
:1032F000331F4A95D2F7009510952095309503C05D
:1033000000E010E09801C695C695C370BC01CD01E0
:10331000602B712B822B932BC23049F058F4C130B3
:1033200019F00E94011FDAC00E94EF1ED7C00E9450
:10333000131FD4C00E94ED1ED1C0DD2319F08C2FC5
:10334000817001C08695882309F4C8C0402F42953A
:1033500046954770440F440F602F6F70862F90E0A2
:10336000A0E0B0E0042E04C0880F991FAA1FBB1F65
:103370000A94D2F704FF10C00FE010E020E030E024
:1033800004C0000F111F221F331F4A95D2F700956A
:1033900010952095309503C000E010E09801C69587
:1033A000C695C370BC01CD01602B712B822B932B72
:1033B000C23049F058F4C13019F00E94C61F8EC0C7
:1033C0000E94B41F8BC00E94D81F88C00E94271F74
:1033D00085C0CF70DD2339F08C2F0E944D1F802FC8
:1033E0000E9473187BC0802F0E947A188C2F0E9435
:1033F0006E1F74C0023F01F128F4003F41F0013F0D
:10340000A1F03FC0033FF9F0043F39F13AC0DD239A
:1034100041F0153008F05EC08C2F8F710E94931F11
:1034200059C0163008F056C0F7CFDD2339F08C2F85
:103430008F710E944D1F4EC0DD23C9F38C2F8F71F9
:103440000E946E1F47C0DD2329F08C2F8F710E94D0
:10345000381F40C00E94331F3DC0DD2349F0CF71AB
:103460008C2F0E944D1F63E08C2F0E94462132C09A
:1034700081E00E945B21123068F182E00E945B21B2
:1034800029C0DD2331F0112391F2802F0E945F17B4
:1034900021C0112399F2093349F49FEFE7EEF3E0DD
:1034A0009150E040F040E1F700C00000802F0E9402
:1034B000011810C04C2F4F70602FC7010E94F704F5
:1034C0000E945E1E0FC04C2F4F70602FC7010E94DC
:1034D000FA0408C088EF8C0D843020F40E94A615F1
:1034E0000E94EE04DD20C9F00E94B82080FD15C0C6
:1034F000F70112820E94B2200E944D1FC7010E9454
:10350000AE1A0E94B220DF91CF911F910F91FF90D0
:10351000EF90DF90CF900C946E1FDF91CF911F91B1
:103520000F91FF90EF90DF90CF9008950F931F932E
:10353000CF93DF93EC01688179818A810E948F208B
:103540008C010E94EA1F0E94DB1EB801CE010E947E
:103550008118DF91CF911F910F910895CF93DF9341
:10356000EC01988189812B813C81232B31F08F3FA5
:1035700031F481E09F3F19F403C081E001C080E095
:1035800080FD19C0CE010E94810481110CC00E94EF
:10359000BC20882381F08A81882369F082E0DF9152
:1035A000CF910C945B21CE010E94961ACE01DF913F
:1035B000CF910C944004DF91CF9108950E94E320B5
:1035C0000E94F3200E94112180E090E00E940716E3
:1035D00080E090E00C941D1680918003909181030F
:1035E0000E9422230C94DE1A0E94D3200C94EC1A21
:1035F000E92FE295EF704E2F50E0FA013297EE304E
:10360000F105B0F4E259FF4F0C941930803F91F06E
:1036100018F4883E68F40EC0843F51F40BC0883E15
:1036200048F0813F29F406C093FB882780F908956C
:1036300080E0089581E008950E9484200E94F81A95
:103640000895CF93DF9300D000D01F92CDB7DEB79F
:103650000F900F900F900F900F90DF91CF910895E2
:10366000CF93DF9300D000D000D0CDB7DEB7269641
:103670000FB6F894DEBF0FBECDBFDF91CF91089596
:103680001F93CF93DF93C0910D0516E080910E0537
:10369000C81799F0D0E01C9FF0011D9FF00D112478
:1036A000E15FFA4F4081518162817381848195810C
:1036B0000E94301B2196C770E9CFDF91CF911F91F7
:1036C000089540913F0550914005609141057091EA
:1036D000420580914305909144050C94301B0F9353
:1036E0001F93CF93DF938091440582958F7009F0EB
:1036F0005DC080914105882309F458C080910D0573
:1037000010910E0560913F0570914005C0914205F2
:10371000D091430591E06F3F09F090E0292F06E03A
:10372000811709F443C0209721F07F3F21F030E05A
:1037300003C031E001C0322F90E030FD34C0089F5B
:10374000F001099FF00D1124DF01A15FBA4F11961E
:103750003C911197371327C03C91361324C0129621
:103760003C91129731111FC013964D915C911497A3
:103770004C1B5D0B483C5105B0F4809144058F70A3
:10378000806180934405EC5EFA4F80818F70806188
:1037900080838FE395E00E94AE1ADF91CF911F9155
:1037A0000F910C94401B01968770BACFDF91CF9197
:1037B0001F910F9108959F92AF92BF92CF92DF9287
:1037C000EF92FF920F931F93CF93DF93CDB7DEB7A6
:1037D00061970FB6F894DEBF0FBECDBF8C0185E0B8
:1037E000F801DE011D9601900D928A95E1F7F8012E
:1037F00040815181E28090913F0560914005209188
:103800004205309143052115310531F06F3F31F408
:1038100081E09F3F19F403C081E001C080E0F82FF0
:10382000F1709F2E80FD46C1F801A380B4808FE324
:10383000C82E85E0D82EF0904105F501E21BF30B70
:10384000FF2009F4DFC080914405E83CF10508F051
:103850009BC0282F207F09F052C0561313C0491374
:1038600011C0FE2CE1100EC08F7080618093440562
:103870000E94611BC6010E94AE1A80914405F801A6
:10388000858358C1AB2831F05F3F31F481E04F3F71
:1038900019F403C081E001C080E080FD03C081E035
:1038A0008E2502C080E090E0F82FF170FF2E80FF9F
:1038B0001CC080910D0520910E0536E0821709F499
:1038C00017C190E0389FF001399FF00D1124E15F9E
:1038D000FA4F6181561306C06081461303C06281AE
:1038E000E61203C001968770E9CFFE2CEE2009F4A2
:1038F00021C1809144058160809344055AC05613CC
:1039000006C0491304C0E11002C0F8019FC04D87F2
:103910005E878D859E850E941C1B882379F1EE2091
:1039200069F120914405822F82958F7090E0029773
:1039300074F080913F059091400598878F83198698
:10394000BB86AA862C87CE0107960E94AE1A86E017
:10395000F801AFE3B5E001900D928A95E1F70E947E
:103960006F1B0E94611B0DC0561729F14D875E87A2
:103970008D859E850E941C1B81112CC0C8010E9450
:10398000AE1AFF24F394D6C0282F207F69F77A2D32
:10399000B98AA88A6E2D89890E94211B8FE395E040
:1039A0000E94AE1A86E0F60111928A95E9F70E940C
:1039B000611BF12CBFC04913D9CFE110D7CFF8015B
:1039C0008583C8010E94AE1A86E0F60111928A959D
:1039D000E9F7B0C0EE2091F220914405822F829544
:1039E0008F7090E002970CF4B2CF80913F059091D8
:1039F00040059A8389831B82BD82AC822E83CE01CF
:103A00000196A3CFE83CF10508F047C0FE2CEE205C
:103A100009F4B4CF561330C049132EC02091440589
:103A200020FD21C0822F82958F70482F50E04115D4
:103A30005105C9F0F80125834F30510541F08F5FE2
:103A4000982F9295907F822F8F70892B8583C80144
:103A50000E94AE1A86E0F801AFE3B5E001900D9246
:103A60008A95E1F742C086E0F801AFE3B5E0019046
:103A70000D928A95E1F75EC04D875E878D859E85A4
:103A80000E941C1B811163CF80914405816080934B
:103A90004405C8010E94AE1A4DC07A2DB98AA88A81
:103AA0006E2D89890E94211B86E0F60111928A956C
:103AB000E9F71BC0EE2009F461CF4D875E878D8545
:103AC0009E850E941C1BF82E882309F457CF86E0A0
:103AD000F801AFE3B5E001900D928A95E1F78FE32D
:103AE00095E00E9459170E946F1B0E94611B22C023
:103AF0004D875E878D859E850E948420292F229583
:103B00002F70223028F49F7039F0811105C00BC04E
:103B1000243028F49F7049F4805E883020F0C8017A
:103B20000E94AE1A9F2CF92C05C0F8019581907F58
:103B300099F7F9CF8F2D61960FB6F894DEBF0FBEBF
:103B4000CDBFDF91CF911F910F91FF90EF90DF904C
:103B5000CF90BF90AF909F90089588EC90E008952B
:103B60001F93CF93DF93CDB7DEB72C970FB6F894A2
:103B7000DEBF0FBECDBF4F83588769877A878B879B
:103B80009C87CE0107960E94DB1B8823D1F09F8182
:103B900088852A853B85232B31F08F3F31F481E0E6
:103BA0009F3F19F403C081E001C080E080FD47C061
:103BB0004F81588569857A858B859C850E94301B4D
:103BC0003EC086E0FE013796DE01119601900D920F
:103BD0008A95E1F7FF81E8856A857B856115710526
:103BE00031F0EF3F31F481E0FF3F19F403C081E091
:103BF00001C080E080FD23C020910E0530E0C901A6
:103C000001968770992740910D0550E0841795071C
:103C1000F1F1F983EA837D836C8396E0929FD00172
:103C2000939FB00D1124A15FBA4FFE013196019010
:103C30000D929A95E1F780930E050E94401B16E0C5
:103C400080910D0590910E05891771F1189FC001A3
:103C50001124815F9A4F0E94DB1B882329F1E09198
:103C60000D051E9FF0011124E15FFA4F4081518143
:103C700062817381848195810E94301B80910D0542
:103C800090E001968770992780930D05D9CF0E9407
:103C9000F41A10920E0510920D05EFE3F5E086E0A0
:103CA000DF011D928A95E9F72C960FB6F894DEBFD6
:103CB0000FBECDBFDF91CF911F910895EF92FF927C
:103CC0000F931F93CF93DF938C01892B09F46CC062
:103CD000F12CEE24E394E8012196F80184918437D5
:103CE00040F4843008F051C0813081F0823019F105
:103CF0005BC0853709F444C0A8F19CE7980F903762
:103D000008F052C08F770E94011841C00E5F1F4F0C
:103D1000FE01849190E2980F983050F48770FE2D48
:103D200001C0FF0F8A95EAF78F2F0E94E62014C08A
:103D30000E945F172DC00E5F1F4FFE01849190E21D
:103D4000980F983060F48770FE2D01C0FF0F8A95A0
:103D5000EAF78F2F0E94EC200E94112119C00E94C7
:103D6000011816C00E5F1F4FFE01C491CC2381F0D5
:103D70008FE99FE00197F1F700C00000C150F6CF36
:103D80000E5F1F4FFE01F49003C00E945F178E016B
:103D90008F2D882309F49FCFEFE9FFE03197F1F7EA
:103DA00000C000008150F5CFDF91CF911F910F919E
:103DB000FF90EF900895089508950C94DC1E0C94E4
:103DC000DD1E0E94DF1E6093670570936805809377
:103DD000690590936A050C94DE1A0C94E11E0F930A
:103DE0001F93009167051091680520916905309136
:103DF0006A05602B712B822B932B1F910F910C94D2
:103E0000E11E0F931F9300916705109168052091A3
:103E1000690530916A0560237123822393231F91E2
:103E20000F910C94E11E0F931F9300916705109161
:103E300068052091690530916A05602771278227FE
:103E400093271F910F910C94E11E0C94DC1E0E948D
:103E5000251F6093630570936405809365059093B7
:103E600066050C94DE1A60E070E0CB010C94271F0D
:103E70000F931F9341E050E060E070E08A019B01E6
:103E800004C0000F111F221F331F8A95D2F7C901EA
:103E9000B8011F910F910C94271F0F931F9341E0BE
:103EA00050E060E070E004C0440F551F661F771FAC
:103EB0008A95D2F78091630590916405A09165057C
:103EC000B09166058A019B01082B192B2A2B3B2BED
:103ED000C901B8011F910F910C94271F0F931F93D5
:103EE00041E050E060E070E004C0440F551F661FE1
:103EF000771F8A95D2F7409550956095709580917F
:103F0000630590916405A0916505B09166058A01ED
:103F10009B01082319232A233B23C901B8011F91C0
:103F20000F910C94271F0F931F9341E050E060E026
:103F300070E004C0440F551F661F771F8A95D2F7A3
:103F40008091630590916405A0916505B091660527
:103F50008A019B01082719272A273B27C901B80195
:103F60001F910F910C94271F0F931F9300916305CE
:103F7000109164052091650530916605602B712BC9
:103F8000822B932B1F910F910C94271F0F931F933C
:103F900000916305109164052091650530916605D7
:103FA00060237123822393231F910F910C94271F69
:103FB0000F931F930091630510916405209165058F
:103FC0003091660560277127822793271F910F91F3
:103FD0000C94271F08952CE0929F800D1124E82F48
:103FE000E695E695E695877051E001C0550F8A95F4
:103FF000EAF785E0E89FF0011124EB5BFA4F20E03F
:1040000030E070E04081CB01022E02C0969587958A
:104010000A94E2F781708195842785238427819310
:104020002F5F3F4F2530310569F708952CE0929FAF
:10403000800D1124682F669566956695982F977068
:1040400085E0689FB001112440E050E080E0FB0172
:10405000E40FF51FEB5BFA4F208130E0092E02C020
:10406000369527950A94E2F721703327042E01C074
:10407000220F0A94EAF7822B4F5F5F4F45305105BC
:1040800031F70895BF92CF92DF92EF92FF920F9394
:104090001F93CF93DF938C01C0906305D09064058C
:1040A000E0906505F0906605809167059091680540
:1040B000A0916905B0916A05C82AD92AEA2AFB2A83
:1040C000CFE1D0E0D701C6010C2E04C0B695A7956C
:1040D000979587950A94D2F780FD04C0219790F7B1
:1040E000B12C07C0BC2EB8018C2F0E941605019779
:1040F000A9F38B2DDF91CF911F910F91FF90EF903E
:10410000DF90CF90BF900895CF93DF93EC010E9492
:104110004220BE010E941605DF91CF9108951F93A2
:10412000CF93DF93EB0190910C05992321F0CB0104
:104130000E94842013C0882349F0CB010E944220B2
:10414000182F682FCE010E94EB1F04C0CB010E94E4
:104150001620182FBE01812F0E941605DF91CF91E6
:104160001F91089580916B05859585958595089596
:1041700080916B058770089590916B05977081E031
:1041800009F480E0089580918F05089590918F053E
:10419000892B80938F050895809590918F058923B1
:1041A00080938F05089510928F05089590918E0544
:1041B000892B80938E050895809590918E05892393
:1041C00080938E05089510928E05089590918D0527
:1041D000892B80938D050895809590918D05892375
:1041E00080938D05089510928D05089580916C053A
:1041F000089508950C94F9200C94FA2090916C0580
:10420000981721F080936C050C94FC200895809100
:104210006C05882329F010926C0580E00C94FC203A
:104220000895E0918003F091810380918F05808350
:10423000E0918003F0918103908180918E05892B1C
:104240008083E0918003F0918103908180918D05BE
:10425000892B808380916C05882381F0E091800315
:10426000F09181039081892B8083809180039091CC
:1042700081030E94542281110E94072180918003B2
:10428000909181030C94B2150C94F92098E0899FC9
:1042900090011124262B20936B050E944D1F8091C5
:1042A0006B058595859585950C94442110926B0539
:1042B00080E00C94442120916B05809582238093AB
:1042C0006B05982F977079F430E0482F082E000C7A
:1042D000550B2417350739F08595859585950E94EE
:1042E0006E1F0C945621089590938304809382044A
:1042F00008958295982F937344E0949F9001112420
:104300008C7C86958695282B822F8575880F2A7A36
:104310002695822B0895CF93DF93D92F0E94792180
:10432000C82F8D2F0E9479212C2F30E0322F222789
:10433000A901482BCA01DF91CF9108956FEF7FEF5C
:1043400080E090E00C94A73080E090E00E94833001
:1043500021E08C3E9E4F09F020E0822F089582E0FC
:1043600090E00C947B3083E090E00C947B30CF9312
:1043700084E090E00E947B30C82F81E290E00E94B0
:104380007B302C2F30E0A901582BCA01CF91089522
:10439000CF93C92F682F84E090E00E9489306C2F62
:1043A00081E290E0CF910C94893087E090E00C940A
:1043B0007B30682F87E090E00C948930AB01BC0122
:1043C0008FE090E00C949B30AB01BC0183E190E066
:1043D0000C949B3060E070E0CB010C94E42160E031
:1043E00070E0CB010E94DE210C94EA216CEE7EEF9E
:1043F00080E090E00E94A73060E082E090E00E94C0
:10440000893060E083E090E00E9489301092670577
:10441000109268051092690510926A0560E084E0C8
:1044200090E00E94893060E081E290E00E94893053
:1044300060E085E090E00E94893060E086E090E0F6
:104440000E9489306FEF87E090E00E94893040E061
:1044500050E0BA0188E090E00E949B3060E08DE07F
:1044600090E00E94893040E050E0BA0188E190E09D
:104470000E949B3060E087E190E00E94893040E03C
:1044800050E0BA018CE190E00E949B3060E080E255
:1044900090E00E9489300C94EF210C94F621682F53
:1044A0008EE090E00C948930FC01329680918C0370
:1044B000882331F08091D30587FF02C09EE101C0BF
:1044C00096E080E0915028F021912223D9F38F5F6C
:1044D000F9CF0895662351F120918C032223E9F04E
:1044E0002091D30527FF19C0462F4695469546953E
:1044F0004E31E0F4677021E030E002C0220F331F3C
:104500006A95E2F7FC01E40FF11D828190E0282317
:10451000392381E0232B69F409C0FC013296089607
:104520002191621729F0E817F907D1F780E0089583
:1045300081E008959C01FC0132969FEF80E041915B
:10454000461789F09F3F19F4411101C0982F8F5FE2
:104550008630A9F79F3F39F0F901E90FF11D97FD6A
:10456000FA956283089508959C012A5F3F4FFC01EC
:104570004281461301C01282019682179307B9F750
:104580000895262F2695269526952E3170F4FC0148
:10459000E20FF11D677021E030E001C0220F6A9543
:1045A000EAF78281282B228308958091900580FF6D
:1045B0000CC01F926F9386E594E09F938F930E94A7
:1045C000EE030F900F900F900F900895262F2695D1
:1045D000269526952E3178F4FC01E20FF11D6770C7
:1045E00021E030E001C0220F6A95EAF72095828130
:1045F0002823228308958091900580FF0CC01F928C
:104600006F9388E394E09F938F930E94EE030F9043
:104610000F900F900F90089520918C03222329F082
:104620002091D30527FD0C94C1220C949A2220914D
:104630008C03222329F02091D30527FD0C94E62238
:104640000C94B42220918C03FC013296222331F089
:104650008091D30587FF02C08EE101C086E0DF01B3
:104660001D928A95E9F7089508950C9434230C94CB
:104670003423CF930E9437230E94BE070E94352324
:10468000C0E08C2F0E94FF06892B29F4CF5FC43035
:10469000C1F780E001C081E0CF9108950C943423EC
:1046A0000C944E230E9450238091D905843049F107
:1046B0001092910520E488E190E00FB6F894A89557
:1046C000809360000FBE2093600080E00E94EE04A3
:1046D0000E94502383B7817F846083BF83B781604A
:1046E00083BF7894889583B78E7F83BF0FB6F89485
:1046F000A8958091600088618093600010926000AE
:104700000FBE08950C9434230E94F41A0E94A6153B
:104710000E94EE040C9482231F920F920FB60F9208
:1047200011248F939F93AF93BF9380919105811133
:1047300013C08091CF059091D005A091D105B09183
:10474000D2054196A11DB11D8093CF059093D00550
:10475000A093D105B093D205BF91AF919F918F9156
:104760000F900FBE0F901F90189582E084BD93E0CC
:1047700095BD9AEF97BD80936E0008952FB7F8947A
:104780008091CF059091D005A091D105B091D2052F
:104790002FBF08959C014FB7F8948091CF05909159
:1047A000D005A091D105B091D2054FBF821B930BCC
:1047B000089578941F920F920FB60F9211248F9341
:1047C0009F93AF93BF938091CF059091D005A09117
:1047D000D105B091D2050196A11DB11D8093CF05E1
:1047E0009093D005A093D105B093D205BF91AF911E
:1047F0009F918F910F900FBE0F901F90189581E0A1
:104800008093E00080E28093D8001092C9008FE18D
:104810009EE40197F1F700C0000087E090EBDC0117
:104820008093E2059093E305A093E405B093E5053A
:104830009CE088E10FB6F894A895809360000FBEC5
:1048400090936000FFCF0C949E210E94BE078FE3DF
:104850009CE90197F1F700C000000E94BE0780E0CC
:104860000E94FF0680FF04C00E9423240C94FF23B3
:1048700008950E94A421811102C00E944D220E942D
:10488000AF21809390050E94B7219093D405809327
:10489000D3050E94B321682F70E080E090E00E9471
:1048A000ED1E60916305709164058091650590919E
:1048B00066050C94251F8091B505089508959FB74E
:1048C000F894109294059FBF9091D905943009F007
:1048D00057C09091E9009F703091EC00232F217018
:1048E00030FD20E8922B23E02093E9002091EB009B
:1048F00020FF43C02091EE0027FF3FC0209192058A
:10490000222321F02091E80025FF37C01092920564
:1049100026E03091E80035FD15C03091D9053430DE
:1049200061F53091EB0035FD28C0215021F481E084
:104930008093920522C0EFE9FFE03197F1F700C0C4
:104940000000E7CF8093F1008091E80085FD0AC068
:104950008091E80080FFFCCF8091E8008E77809303
:10496000E80006C08FB7F89421E0209394058FBF2C
:104970009F709093E90080E008959F709093E90004
:104980008FEF0895CF93DF9300D01F92CDB7DEB79E
:104990009091D905943019F589837B836A8382E0ED
:1049A0008093E9008FEF9091E800815095FD06C05B
:1049B00095ED9A95F1F700008111F5CF8091E8000F
:1049C00085FF0DC040E050E063E070E0CE0101964D
:1049D0000E9431278091E8008E778093E8000F9045
:1049E0000F900F90DF91CF910895BC0184E00C945B
:1049F000C224BC0183E00C94C224CF93DF932091A6
:104A00008C03222339F02091D30527FF03C060E2F5
:104A100022E002C068E021E02093E9002FEF30910E
:104A2000E800215035FD06C035ED3A95F1F700005C
:104A30002111F5CF2091E80025FF1DC0EC018091E8
:104A40008C03811105C040E050E068E070E003C0D5
:104A500070E040E050E0CE010E9431278091E800F4
:104A60008E778093E80080E2FE01A5E9B5E0019031
:104A70000D928A95E1F7DF91CF91089589E994E04D
:104A80000E9455038091D805811109C00E94C22857
:104A90000E941F298091E20084608093E2000895C3
:104AA00085E994E00E9455031092D805089581E9A4
:104AB00094E00C9455038DE894E00C94550389E838
:104AC00094E00E9455030C948423209193052F5F5A
:104AD000822F62E30E94E52F992319F0209393051A
:104AE00008951092930580919405882371F1809127
:104AF000D905843041F58091E9008F702091EC0058
:104B0000922F917020FD90E8892B93E09093E9001B
:104B10009091EB0090FF14C09091EE0097FF10C0B1
:104B20009091E80095FF03C01092F100F9CF9091A9
:104B3000E80090FF05C09091E8009E779093E80010
:104B40008F708093E90010929405089542E061EC23
:104B500081E00E943B2842E261EC82E00E943B2817
:104B600042E261EC83E00C943B288091DB058330CA
:104B700009F460C030F4813071F0823009F499C0DA
:104B800008958A3009F485C08B3009F46BC08930F0
:104B900009F0A7C020C08091DA05813A09F0A1C0D0
:104BA0008091E800877F8093E8008091DE059091F6
:104BB000DF05892B21F460E285E995E003C060E020
:104BC00080E090E070E00E947C278091E8008B7785
:104BD0008093E80008958091DA05813209F081C060
:104BE0008091DE059091DF05029708F07AC08091F0
:104BF000E800877F8093E8008091E80082FD05C08F
:104C00008091D9058111F8CF6CC02091F30080917B
:104C1000F20090E0922B029729F48091F1008B7FB3
:104C2000813021F48091F1008093B5058091E800F6
:104C30008B7753C08091DA05813A09F052C0809198
:104C4000DE059091DF05892B09F04BC08091E800CB
:104C5000877F8093E8008091E80080FFFCCF8091FF
:104C60008C0336C08091DA058132D9F58091DE055A
:104C70009091DF05892BA9F58091E800877F8093CB
:104C8000E8000E9470288091DC0580938C030C94CE
:104C9000F41A8091DA05813221F58091E800877F4E
:104CA0008093E8000E9470288091DD058093B6050E
:104CB00008958091DA05813AA1F48091E800877F18
:104CC0008093E8008091E80080FFFCCF8091B605DA
:104CD0008093F1008091E8008E778093E8000C9437
:104CE0007028089584B7877F84BF0FB6F894A8957D
:104CF00080916000886180936000109260000FBE18
:104D000090E080E80FB6F894809361009093610082
:104D10000FBE0E9443160E94C2280E941F29809144
:104D2000E20084608093E2008FE594E20E947421A7
:104D300078940E94B32B0E944D1682E893E00E9463
:104D4000A11588E794E00E9455038091D90585302C
:104D500089F484E794E00E9455030E9452238091D5
:104D6000D705882391F30E943923882371F30E9489
:104D70001B27EBCF0E947D16E8CF0C94BF26292F6E
:104D8000332723303105C9F060F42130310581F03B
:104D90002230310509F047C08BE590E023EC34E088
:104DA00046C02132310511F12232310561F13BC09B
:104DB00082E190E02EE135E03AC0992781309105FB
:104DC00061F040F08230910559F0039761F5EDE90B
:104DD000F4E008C0EFEBF4E005C0E3EBF4E002C060
:104DE000E3EAF4E0849190E09F0121C06330710513
:104DF000D0F4660F771FFB01E558FB4F208131810E
:104E000089E090E014C06330710568F4FB01EE0F97
:104E1000FF1FEB58FB4F20813181FB01EE58FB4F08
:104E2000808190E004C080E090E020E030E0FA0172
:104E300031832083089580E189BD82E189BD09B471
:104E400000FEFDCF8091D8008F7D8093D8008091A7
:104E5000E00082608093E0008091E00081FDFCCF63
:104E60000895CF92DF92EF92FF920F931F93CF930B
:104E7000DF93EC018B017A010E948F28811133C0EE
:104E8000E114F10439F0F70180819181081B190BBD
:104E9000C80FD91FC12CD12C0115110519F1809112
:104EA000E80085FD16C08091E8008E778093E800C9
:104EB000E114F10449F0F70180819181C80ED91EF7
:104EC000D182C08285E00FC00E948F28882321F301
:104ED0000AC089918093F10001501109FFEFCF1AA8
:104EE000DF0ADACF80E0DF91CF911F910F91FF9021
:104EF000EF90DF90CF9008952091E0053091E1058B
:104F00002617370748F06115710539F42091E8003C
:104F10002E772093E80001C0B901FC0120E0611563
:104F2000710579F18091D9058823F1F18530F1F18E
:104F30008091E80083FD3CC08091E80082FD2EC096
:104F40008091E80080FFEBCF2091F3008091F20088
:104F500090E0922B6115710551F08830910538F47D
:104F600021912093F100615071090196F3CF21E066
:104F7000089709F020E08091E8008E778093E800A0
:104F8000CECF2111CFCF0AC08091D905882361F0FF
:104F9000853061F08091E80083FD0AC08091E800CF
:104FA00082FFF2CF80E0089582E0089583E00895C3
:104FB00081E008952091E0053091E105261737073B
:104FC00048F06115710539F42091E8002E7720939F
:104FD000E80001C0B901FC0120E06115710591F103
:104FE0008091D905882309F440C0853009F43FC079
:104FF0008091E80083FD3DC08091E80082FD2FC0D4
:105000008091E80080FFE9CF2091F3008091F200C9
:1050100090E0922B6115710559F08830910540F4AC
:1050200024912093F1003196615071090196F2CFDD
:1050300021E0089709F020E08091E8008E778093C6
:10504000E800CBCF2111CCCF0AC08091D9058823AD
:1050500061F0853061F08091E80083FD0AC08091A5
:10506000E80082FFF2CF80E0089582E0089583E0B7
:10507000089581E00895982F973068F59093E9009E
:10508000981739F07091EC002091ED005091F000EC
:1050900003C0242F762F50E021FD02C09F5FECCF8C
:1050A0003091EB003E7F3093EB003091ED003D7F7F
:1050B0003093ED003091EB0031603093EB00709352
:1050C000EC002093ED005093F0002091EE0027FDBE
:1050D000E5CF80E008958F708093E90081E0089526
:1050E0008091DA0587FF11C08091E80082FD05C03C
:1050F0008091D9058111F8CF11C08091E8008B779C
:105100000BC08091D905882349F08091E80080FF89
:10511000F8CF8091E8008E778093E8000895209181
:10512000E4003091E50095E64091EC00842F817019
:1051300040FF23C08091E80080FD1DC08091D9050B
:10514000882399F0853099F08091EB0085FD11C09E
:105150004091E4005091E5002417350729F3915060
:1051600011F09A01E1CF84E0089582E0089583E090
:10517000089581E0089580E008954091E80042FF9D
:10518000DDCF08950E9430290E943829E0EEF0E03A
:10519000808181608083E8EDF0E080818F7780837B
:1051A00019BCA7EDB0E08C918E7F8C9380818F7EAF
:1051B00080831092D80508950F931F93CF93DF93A8
:1051C0000E9430290E943829C8EDD0E088818F776D
:1051D000888388818068888388818F7D888319BCD3
:1051E0001092D9051092D5051092D7051092D605C8
:1051F00000EE10E0F80180818B7F808388818160E0
:10520000888342E060E080E00E943B28E1EEF0E02D
:1052100080818E7F8083E2EEF0E0808181608083F8
:10522000808188608083F80180818E7F808388817F
:1052300080618883DF91CF911F910F910895E8EDF0
:10524000F0E080818F7E8083E7EDF0E080818160F7
:10525000808384E082BF81E08093D8050C94DC28B1
:10526000E8EDF0E080818E7F80831092E200089567
:105270001092DA001092E10008951F920F920FB67B
:105280000F9211242F933F934F935F936F937F93CC
:105290008F939F93AF93BF93EF93FF938091E10020
:1052A00082FF0BC08091E20082FF07C08091E10085
:1052B0008B7F8093E1000E9465258091DA0080FF5A
:1052C0001FC08091D80080FF1BC08091DA008E7FC4
:1052D0008093DA008091D90080FF0DC080E189BD04
:1052E00082E189BD09B400FEFDCF81E08093D9053C
:1052F0000E943E2505C019BC1092D9050E94502578
:105300008091E10080FF19C08091E20080FF15C00C
:105310008091E2008E7F8093E2008091E2008061C4
:105320008093E2008091D80080628093D80019BCFD
:1053300085E08093D9050E945B258091E10084FF80
:1053400030C08091E20084FF2CC080E189BD82E101
:1053500089BD09B400FEFDCF8091D8008F7D809378
:10536000D8008091E1008F7E8093E1008091E2007F
:105370008F7E8093E2008091E20081608093E20062
:105380008091D505882311F084E007C08091E30067
:1053900087FD02C081E001C083E08093D9050E94AF
:1053A0005F258091E10083FF29C08091E20083FFA7
:1053B00025C08091E100877F8093E10082E08093A7
:1053C000D9051092D5058091E1008E7F8093E10090
:1053D0008091E2008E7F8093E2008091E200806104
:1053E0008093E20042E060E080E00E943B288091F0
:1053F000F00088608093F0000E945725FF91EF91A4
:10540000BF91AF919F918F917F916F915F914F91DC
:105410003F912F910F900FBE0F901F9018951F92E4
:105420000F920FB60F9211242F933F934F935F93D8
:105430006F937F938F939F93AF93BF93CF93DF939C
:10544000EF93FF93C091E900CF708091EC00D82FCB
:10545000D17080FDD0E81092E9008091F000877F44
:105460008093F00078940E94532A1092E900809172
:10547000F00088608093F000CD2BCF70C093E900DE
:10548000FF91EF91DF91CF91BF91AF919F918F915C
:105490007F916F915F914F913F912F910F900FBE30
:1054A0000F901F9018951F93CF93DF93CDB7DEB762
:1054B000AA970FB6F894DEBF0FBECDBFEAEDF5E0B8
:1054C0008091F100819325E0E23EF207C9F70E9446
:1054D000B5258091E80083FF2EC18091DA05909177
:1054E000DB05492F50E04A30510508F024C1FA018C
:1054F000E458FF4F0C941930803821F0823809F0BD
:105500001AC108C08091D6059091D705992389F0DA
:1055100082600FC08091DE058F70873008F00BC16C
:105520008093E9008091EB0085FB882780F9109239
:10553000E9009091E800977F9093E8008093F10054
:105540001092F100D1C0282F2D7F09F0F4C08823DC
:1055500019F0823061F0EFC08091DC05813009F0F4
:10556000EAC0933009F080E08093D7052EC0809187
:10557000DC0581112AC08091DE058F702FEF280F86
:10558000263008F0D8C08093E9002091EB0020FF7E
:105590001CC0933021F48091EB00806214C0909184
:1055A000EB0090619093EB0021E030E0A90102C094
:1055B000440F551F8A95E2F74093EA001092EA00E3
:1055C0008091EB0088608093EB001092E90080915D
:1055D000E800877F8093E8000E947028ACC08111AA
:1055E000AAC01091DC051F778091E3008078812BA1
:1055F0008093E3008091E800877F8093E8000E9419
:1056000070288091E80080FFFCCF8091E3008068E3
:105610008093E300111102C082E001C083E0809317
:10562000D90589C08058823008F085C08091DC059A
:105630009091DD058C3D53E0950779F583E08A83F1
:105640008AE289834FB7F894DE01139620E03EE0AA
:1056500051E2E32FF0E050935700E49120FF03C0A4
:10566000E295EF703F5FEF708E2F90E0EA3010F020
:10567000C79601C0C0968D939D932F5F243149F743
:105680004FBF8091E800877F8093E8006AE270E076
:10569000CE0101960E947C2716C06091DE057091B4
:1056A000DF05AE014F5F5F4F0E94BD26BC01892B15
:1056B00009F441C09091E800977F9093E8008981B8
:1056C0009A810E94DA278091E8008B778093E80026
:1056D00032C0803881F58091E800877F8093E800B0
:1056E0008091D5058093F1008091E8008E7772CF8C
:1056F000811121C08091DC059091DD0599270297E9
:10570000D4F48091E800877F8093E8008091DC05E5
:105710008093D5050E9470288091D505811106C01F
:105720008091E30087FD02C081E001C084E08093A6
:10573000D9050E94A6258091E80083FF0AC08091C8
:10574000E800877F8093E8008091EB00806280937F
:10575000EB00AA960FB6F894DEBF0FBECDBFDF9167
:10576000CF911F910895CF938091D9058823A1F0FF
:10577000C091E900CF709091EC00892F817090FD6D
:1057800080E8C82B1092E9008091E80083FD0E9418
:10579000532ACF70C093E900CF9108955058BB278A
:1057A000AA270E94E62B0C94C22D0E94B42D38F03B
:1057B0000E94BB2D20F039F49F3F19F426F40C947D
:1057C000B12D0EF4E095E7FB0C949D2DE92F0E947E
:1057D000D32D58F3BA17620773078407950720F093
:1057E00079F4A6F50C94F52D0EF4E0950B2EBA2F56
:1057F000A02D0B01B90190010C01CA01A0011124D7
:10580000FF27591B99F0593F50F4503E68F11A1682
:10581000F040A22F232F342F4427585FF3CF469513
:1058200037952795A795F0405395C9F77EF41F1635
:10583000BA0B620B730B840BBAF09150A1F0FF0FFF
:10584000BB1F661F771F881FC2F70EC0BA0F621FEB
:10585000731F841F48F4879577956795B795F795DB
:105860009E3F08F0B0CF9395880F08F09927EE0F70
:105870009795879508950E94792D08F481E0089501
:105880000E94542C0C94C22D0E94BB2D58F00E94F3
:10589000B42D40F029F45F3F29F00C949D2D511157
:1058A0000C94F62D0C94B12D0E94D32D68F39923FE
:1058B000B1F3552391F3951B550BBB27AA2762170C
:1058C0007307840738F09F5F5F4F220F331F441F19
:1058D000AA1FA9F335D00E2E3AF0E0E832D091504D
:1058E0005040E695001CCAF72BD0FE2F29D0660F3A
:1058F000771F881FBB1F261737074807AB07B0E87D
:1059000009F0BB0B802DBF01FF2793585F4F3AF082
:105910009E3F510578F00C949D2D0C94F62D5F3F21
:10592000E4F3983ED4F3869577956795B795F79508
:105930009F5FC9F7880F911D9695879597F90895F0
:10594000E1E0660F771F881FBB1F6217730784078C
:10595000BA0720F0621B730B840BBA0BEE1F88F79B
:10596000E09508950E94B92C6894B1110C94F62D1D
:1059700008950E94DB2D88F09F5798F0B92F992742
:10598000B751B0F0E1F0660F771F881F991F1AF02A
:10599000BA95C9F714C0B13091F00E94F52DB1E06D
:1059A00008950C94F52D672F782F8827B85F39F06C
:1059B000B93FCCF3869577956795B395D9F73EF4C3
:1059C00090958095709561957F4F8F4F9F4F08956B
:1059D000E89409C097FB3EF4909580957095619589
:1059E0007F4F8F4F9F4F9923A9F0F92F96E9BB273F
:1059F0009395F695879577956795B795F111F8CFBB
:105A0000FAF4BB0F11F460FF1BC06F5F7F4F8F4F25
:105A10009F4F16C0882311F096E911C0772321F01B
:105A20009EE8872F762F05C0662371F096E8862FB3
:105A300070E060E02AF09A95660F771F881FDAF70A
:105A4000880F9695879597F908950E94B42D20F0B8
:105A500019F00E94BB2D50F40C94B12D0C94F62D2E
:105A6000E92F0E94D32D88F35523B1F3E7FB62178A
:105A7000730784079507A8F189F3E92FFF27882387
:105A80002AF03197660F771F881FDAF7952F552771
:105A9000442332F091505040220F331F441FD2F75D
:105AA000BB27E91BF50B621B730B840BB109B1F229
:105AB00022F4620F731F841FB11D31972AF0660F05
:105AC000771F881FBB1FEFCF9150504062F041F00D
:105AD000882332F0660F771F881F91505040C1F71E
